:020000040800F2
:100000000020002089030008D5030008D50300085C
:1000100000000000000000000000000000000000E0
:10002000000000000000000000000000D5030008F0
:100030000000000000000000D50300085503000880
:10004000D5030008D5030008D5030008D503000830
:10005000D5030008D5030008D5030008D503000820
:10006000D5030008D5030008D5030008D503000810
:10007000D5030008D5030008D5030008D503000800
:10008000D5030008D503000800000000D5030008D0
:10009000D5030008D5030008D5030008D5030008E0
:1000A000D5030008D5030008D5030008D5030008D0
:1000B000D503000800000000D50300080000000080
:1000C0005FF808F180B582B000AF78600A1CFB1CB5
:1000D0001A70FB1C1B78002B06D0084B074A51698D
:1000E0007A680A435A6106E0044B044A5269796807
:1000F000C9430A405A61BD4602B080BD00100240AB
:10010000B0B582B000AF021C3960FB1D1A70FB1D38
:100110001B787F2B2FD92D4CFB1D1B781A1C0F230E
:100120001340083B9908294AFB1D1B78181C0F2314
:100130000340083B9B0806339B00D3185B68FA1DFD
:100140001278101C03220240D200101CFF228240B1
:10015000D2431A403B689B01FF200340F81D007802
:10016000051C03202840C00083401A438B1D9B00C0
:10017000E3185A6026E0164CFB1D1B785BB29B0807
:100180001349FA1D127852B29208C03292005258A6
:10019000F91D0978081C03210140C900081CFF2132
:1001A0008140C94311403A689201FF200240F81D86
:1001B0000078051C03202840C00082400A43C03359
:1001C0009B001A51BD4602B0B0BDC04600ED00E034
:1001D00000E100E080B582B000AF78607B680E4A35
:1001E000934201D9012312E00C4B7A681202120AE1
:1001F000013A5A6001235B42181C0321FFF780FF7C
:10020000064B00229A60054B07221A600023181C37
:10021000BD4602B080BDC046FFFFFF0010E000E019
:1002200080B582B000AF80231B03181C0121FFF7AB
:1002300049FF80239B02181C0121FFF743FF3B1C51
:1002400001221A713B1C00229A713B1CC0229200B1
:100250001A603B1C0022DA713B1C00225A710F4AC3
:100260003B1C101C191C00F0D7F93B1C00221A7112
:100270003B1C00229A713B1C01221A603B1C02228B
:10028000DA713B1C00225A719023DA053B1C101CCA
:10029000191C00F0C1F9BD4602B080BD000800483D
:1002A00080B500AF254B1B685A1C244B1A60234BAA
:1002B0001A68234B1B689A4202D3204B00221A6013
:1002C0001F4B1B685A081D4B1B689A4207D81D4AD2
:1002D00080239B00101C191C00F054FA06E0194AF8
:1002E00080239B00101C191C00F05AFA9023DB0598
:1002F000181C012100F022FA031E19D0124B1B68B2
:10030000002B04D10E4B1B685A080D4B1A600E4B84
:100310001B685A1C0C4B1A600B4B1B680B4A934210
:1003200009D9074B0A4A1A60074B00221A6002E0FB
:10033000054B00221A60BD4680BDC0461800002053
:1003400000000020000800481C000020E703000017
:100350001027000080B500AFFFF7A2FFBD4680BDAB
:1003600080B500AFFFF75CFF00F07CF8054B1B6821
:10037000181CFA23990000F021FA031C181CFFF73F
:1003800029FFFEE7040000200C488546002103E019
:100390000B4B5B58435004310A480B4B42189A42AE
:1003A000F6D30A4A02E0002313600432084B9A4253
:1003B000F9D300F011F8FFF7D3FFFEE7002000208B
:1003C000E0080008000000201800002018000020AD
:1003D00020000020FEE7000080B500AF1B4B1B4A49
:1003E000126801210A431A60184B184A52681849CA
:1003F0000A405A60154B154A126816490A401A609D
:10040000124B124A126814490A401A600F4B0F4AE5
:10041000526812490A405A600C4B0C4AD26A0F21AA
:100420008A43DA62094B094A126B0D490A401A6382
:10043000064B064A526B01218A435A63034B002242
:100440009A6000F079F8BD4680BDC04600100240B9
:100450000CB8FFF8FFFFF6FEFFFFFBFFFFFFC0FF3A
:10046000ACFEFFFF80B584B000AF0023FB6000232B
:10047000BB6000237B6000233B602A4B5B680C223F
:100480001340FB60FB68042B07D0082B09D0002B1E
:1004900031D1254B254A1A6031E0234B234A1A609B
:1004A0002DE0204B5A68F0239B031340BB601D4B8B
:1004B0005A6880235B0213407B60BB689B0C02334D
:1004C000BB607B68002B05D1BB68194A5A43164BA9
:1004D0001A6014E0134BDB6A0F22134001333B60B8
:1004E0001248396800F06AF9031C1A1CBB685A43A9
:1004F0000D4B1A6003E00C4B0C4A1A60C046094BC6
:100500005B68F02213401B090A4AD35CDBB2FB6034
:10051000054B1A68FB68DA40034B1A60BD4604B00D
:1005200080BDC046001002400400002000127A0086
:1005300000093D000800002080B582B000AF002314
:100540007B6000233B60314B304A126880214902B6
:100550000A431A602D4B1A6880239B0213403B60AC
:100560007B6801337B603B68002B04D17A68A02351
:10057000DB019A42EED1254B1A6880239B0213407F
:1005800002D001233B6001E000233B603B68012B6C
:1005900038D11F4B11221A601C4B1C4A52685A60FA
:1005A0001A4B1A4A52685A60184B184A526819492D
:1005B0000A405A60154B154A5268882149030A437C
:1005C0005A60124B114A1268802149040A431A608A
:1005D000C0460E4B1A6880239B041340F9D00B4B86
:1005E0000A4A526803218A435A60084B074A5268F4
:1005F00002210A435A60C046044B5B680C22134038
:10060000082BF9D1BD4602B080BDC04600100240A3
:1006100000200240FFFFC0FF80B586B000AF7860C9
:10062000396000237B6100233B610023FB600023D2
:100630007B617CE07B6901229A40131C3B613B6833
:100640001B683A691340FB60FA683B699A426BD1B8
:100650003B681B79012B03D03B681B79022B34D1FB
:100660007B689B687A695200111C03228A40D2433E
:100670001A407B689A607B689A683B685B79191CB2
:100680007B695B0099400B1C1A437B689A607B680E
:100690009B889BB27A6992B2111C01228A4092B265
:1006A000D24392B213409AB27B689A807B689B884F
:1006B0009AB23B689B79191C7B699BB299400B1CD1
:1006C0009BB213439AB27B689A807B681B687A69F5
:1006D0005200111C03228A40D2431A407B681A60E0
:1006E0007B681A683B681B79191C7B695B00994021
:1006F0000B1C1A437B681A607B68DB687A6992B2CC
:100700005200032191400A1CD2431A407B68DA60F0
:100710007B68DA683B68DB79191C7B695B00994070
:100720000B1C1A437B68DA607B6901337B617B6950
:100730000F2B00D87EE7BD4606B080BD80B584B0E3
:1007400000AF78600A1CBB1C1A800F23FB18002224
:100750001A707B681B8A9BB2BA1C128813409BB22A
:10076000002B04D00F23FB1801221A7003E00F2383
:10077000FB1800221A700F23FB181B78181CBD46AB
:1007800004B080BD80B582B000AF78600A1CBB1C8D
:100790001A80BB1C1A887B689A61BD4602B080BD76
:1007A00080B582B000AF78600A1CBB1C1A807B68E1
:1007B000BA1C12881A85BD4602B080BD00224308CB
:1007C0008B4274D303098B425FD3030A8B4244D319
:1007D000030B8B4228D3030C8B420DD3FF2209025B
:1007E00012BA030C8B4202D31212090265D0030B1A
:1007F0008B4219D300E0090AC30B8B4201D3CB0310
:10080000C01A5241830B8B4201D38B03C01A524151
:10081000430B8B4201D34B03C01A5241030B8B4253
:1008200001D30B03C01A5241C30A8B4201D3CB023E
:10083000C01A5241830A8B4201D38B02C01A524123
:10084000430A8B4201D34B02C01A5241030A8B4226
:1008500001D30B02C01A5241CDD2C3098B4201D33E
:10086000CB01C01A524183098B4201D38B01C01ABC
:10087000524143098B4201D34B01C01A5241030933
:100880008B4201D30B01C01A5241C3088B4201D3E2
:10089000CB00C01A524183088B4201D38B00C01A8F
:1008A000524143088B4201D34B00C01A5241411AB6
:1008B00000D20146524110467047FFE701B50020C3
:1008C00000F00CF802BDC0460029F7D003B5FFF7D1
:1008D00075FF0EBC4243891A1847C0467047C04690
:1008E00010270000006CDC02000000000000000087
:0808F0000102030406070809D8
:0400000508000000EF
:00000001FF
